{
  "contractName": "KoolKidz",
  "abi": [
    {
      "constant": true,
      "inputs": [],
      "name": "name",
      "outputs": [
        {
          "name": "",
          "type": "string"
        }
      ],
      "payable": false,
      "stateMutability": "view",
      "type": "function"
    },
    {
      "constant": false,
      "inputs": [
        {
          "name": "_to",
          "type": "address"
        },
        {
          "name": "_tokenId",
          "type": "uint256"
        }
      ],
      "name": "approve",
      "outputs": [],
      "payable": false,
      "stateMutability": "nonpayable",
      "type": "function"
    },
    {
      "constant": true,
      "inputs": [],
      "name": "totalSupply",
      "outputs": [
        {
          "name": "",
          "type": "uint256"
        }
      ],
      "payable": false,
      "stateMutability": "view",
      "type": "function"
    },
    {
      "constant": true,
      "inputs": [
        {
          "name": "_tokenId",
          "type": "uint256"
        }
      ],
      "name": "approvedFor",
      "outputs": [
        {
          "name": "",
          "type": "address"
        }
      ],
      "payable": false,
      "stateMutability": "view",
      "type": "function"
    },
    {
      "constant": true,
      "inputs": [
        {
          "name": "_owner",
          "type": "address"
        }
      ],
      "name": "tokensOf",
      "outputs": [
        {
          "name": "",
          "type": "uint256[]"
        }
      ],
      "payable": false,
      "stateMutability": "view",
      "type": "function"
    },
    {
      "constant": true,
      "inputs": [
        {
          "name": "_tokenId",
          "type": "uint256"
        }
      ],
      "name": "ownerOf",
      "outputs": [
        {
          "name": "",
          "type": "address"
        }
      ],
      "payable": false,
      "stateMutability": "view",
      "type": "function"
    },
    {
      "constant": true,
      "inputs": [
        {
          "name": "_owner",
          "type": "address"
        }
      ],
      "name": "balanceOf",
      "outputs": [
        {
          "name": "",
          "type": "uint256"
        }
      ],
      "payable": false,
      "stateMutability": "view",
      "type": "function"
    },
    {
      "constant": true,
      "inputs": [],
      "name": "owner",
      "outputs": [
        {
          "name": "",
          "type": "address"
        }
      ],
      "payable": false,
      "stateMutability": "view",
      "type": "function"
    },
    {
      "constant": false,
      "inputs": [
        {
          "name": "_to",
          "type": "address"
        },
        {
          "name": "_tokenId",
          "type": "uint256"
        }
      ],
      "name": "transfer",
      "outputs": [],
      "payable": false,
      "stateMutability": "nonpayable",
      "type": "function"
    },
    {
      "constant": false,
      "inputs": [
        {
          "name": "_tokenId",
          "type": "uint256"
        }
      ],
      "name": "takeOwnership",
      "outputs": [],
      "payable": false,
      "stateMutability": "nonpayable",
      "type": "function"
    },
    {
      "constant": false,
      "inputs": [
        {
          "name": "newOwner",
          "type": "address"
        }
      ],
      "name": "transferOwnership",
      "outputs": [],
      "payable": false,
      "stateMutability": "nonpayable",
      "type": "function"
    },
    {
      "constant": true,
      "inputs": [
        {
          "name": "",
          "type": "uint256"
        }
      ],
      "name": "schoolYard",
      "outputs": [
        {
          "name": "name",
          "type": "string"
        },
        {
          "name": "hometown",
          "type": "string"
        },
        {
          "name": "hairColor",
          "type": "string"
        },
        {
          "name": "eyeColor",
          "type": "string"
        },
        {
          "name": "catchPhrase",
          "type": "string"
        },
        {
          "name": "sport",
          "type": "string"
        }
      ],
      "payable": false,
      "stateMutability": "view",
      "type": "function"
    },
    {
      "inputs": [],
      "payable": false,
      "stateMutability": "nonpayable",
      "type": "constructor"
    },
    {
      "anonymous": false,
      "inputs": [
        {
          "indexed": false,
          "name": "name",
          "type": "string"
        },
        {
          "indexed": false,
          "name": "hometown",
          "type": "string"
        },
        {
          "indexed": false,
          "name": "hairColor",
          "type": "string"
        },
        {
          "indexed": false,
          "name": "eyeColor",
          "type": "string"
        },
        {
          "indexed": false,
          "name": "catchPhrase",
          "type": "string"
        },
        {
          "indexed": false,
          "name": "sport",
          "type": "string"
        }
      ],
      "name": "newKoolKidz",
      "type": "event"
    },
    {
      "anonymous": false,
      "inputs": [
        {
          "indexed": true,
          "name": "previousOwner",
          "type": "address"
        },
        {
          "indexed": true,
          "name": "newOwner",
          "type": "address"
        }
      ],
      "name": "OwnershipTransferred",
      "type": "event"
    },
    {
      "anonymous": false,
      "inputs": [
        {
          "indexed": true,
          "name": "_from",
          "type": "address"
        },
        {
          "indexed": true,
          "name": "_to",
          "type": "address"
        },
        {
          "indexed": false,
          "name": "_tokenId",
          "type": "uint256"
        }
      ],
      "name": "Transfer",
      "type": "event"
    },
    {
      "anonymous": false,
      "inputs": [
        {
          "indexed": true,
          "name": "_owner",
          "type": "address"
        },
        {
          "indexed": true,
          "name": "_approved",
          "type": "address"
        },
        {
          "indexed": false,
          "name": "_tokenId",
          "type": "uint256"
        }
      ],
      "name": "Approval",
      "type": "event"
    },
    {
      "constant": false,
      "inputs": [],
      "name": "withdraw",
      "outputs": [],
      "payable": false,
      "stateMutability": "nonpayable",
      "type": "function"
    },
    {
      "constant": false,
      "inputs": [
        {
          "name": "_name",
          "type": "string"
        },
        {
          "name": "_hometown",
          "type": "string"
        },
        {
          "name": "_hairColor",
          "type": "string"
        },
        {
          "name": "_eyeColor",
          "type": "string"
        },
        {
          "name": "_catchPhrase",
          "type": "string"
        },
        {
          "name": "_sport",
          "type": "string"
        }
      ],
      "name": "createSuperKoolKid",
      "outputs": [],
      "payable": true,
      "stateMutability": "payable",
      "type": "function"
    },
    {
      "constant": true,
      "inputs": [
        {
          "name": "_id",
          "type": "uint256"
        }
      ],
      "name": "whoIsThisKid",
      "outputs": [
        {
          "name": "",
          "type": "string"
        },
        {
          "name": "",
          "type": "string"
        },
        {
          "name": "",
          "type": "string"
        },
        {
          "name": "",
          "type": "string"
        },
        {
          "name": "",
          "type": "string"
        },
        {
          "name": "",
          "type": "string"
        }
      ],
      "payable": false,
      "stateMutability": "view",
      "type": "function"
    },
    {
      "constant": true,
      "inputs": [
        {
          "name": "_id",
          "type": "uint256"
        }
      ],
      "name": "whoLostTheirKid",
      "outputs": [
        {
          "name": "",
          "type": "address"
        }
      ],
      "payable": false,
      "stateMutability": "view",
      "type": "function"
    }
  ],
  "bytecode": "0x606060405234156200001057600080fd5b33600560006101000a81548173ffffffffffffffffffffffffffffffffffffffff021916908373ffffffffffffffffffffffffffffffffffffffff1602179055506040805190810160405280600881526020017f4b6f6f6c4b69647a000000000000000000000000000000000000000000000000815250600690805190602001906200009e92919062000956565b50620002286040805190810160405280600d81526020017f4a756c657320417669676e6f6e000000000000000000000000000000000000008152506040805190810160405280600581526020017f50617269730000000000000000000000000000000000000000000000000000008152506040805190810160405280600581526020017f4d61726f6e0000000000000000000000000000000000000000000000000000008152506040805190810160405280600481526020017f5665727400000000000000000000000000000000000000000000000000000000815250606060405190810160405280602581526020017f566f756c657a20766f757320636f756368657a2061766563206d6f692063652081526020017f736f69723f0000000000000000000000000000000000000000000000000000008152506040805190810160405280600481526020017f466f6f74000000000000000000000000000000000000000000000000000000008152506200022e6401000000000262000ee0176401000000009004565b62000bca565b6000655af3107a4000341115156200024557600080fd5b600880548060010182816200025b9190620009dd565b9160005260206000209060060201600060c0604051908101604052808b81526020018a81526020018981526020018881526020018781526020018681525090919091506000820151816000019080519060200190620002bc92919062000a12565b506020820151816001019080519060200190620002db92919062000a12565b506040820151816002019080519060200190620002fa92919062000a12565b5060608201518160030190805190602001906200031992919062000a12565b5060808201518160040190805190602001906200033892919062000a12565b5060a08201518160050190805190602001906200035792919062000a12565b50505090506200037c3382620006a66401000000000262001c98176401000000009004565b7f38d2adca4c1e4638140eeae7dbe07deb7f01c4326a5d96b5cb67b725d3192ffa8787878787876040518080602001806020018060200180602001806020018060200187810387528d818151815260200191508051906020019080838360005b83811015620003f9578082015181840152602081019050620003dc565b50505050905090810190601f168015620004275780820380516001836020036101000a031916815260200191505b5087810386528c818151815260200191508051906020019080838360005b838110156200046257808201518184015260208101905062000445565b50505050905090810190601f168015620004905780820380516001836020036101000a031916815260200191505b5087810385528b818151815260200191508051906020019080838360005b83811015620004cb578082015181840152602081019050620004ae565b50505050905090810190601f168015620004f95780820380516001836020036101000a031916815260200191505b5087810384528a818151815260200191508051906020019080838360005b838110156200053457808201518184015260208101905062000517565b50505050905090810190601f168015620005625780820380516001836020036101000a031916815260200191505b50878103835289818151815260200191508051906020019080838360005b838110156200059d57808201518184015260208101905062000580565b50505050905090810190601f168015620005cb5780820380516001836020036101000a031916815260200191505b50878103825288818151815260200191508051906020019080838360005b8381101562000606578082015181840152602081019050620005e9565b50505050905090810190601f168015620006345780820380516001836020036101000a031916815260200191505b509c5050505050505050505050505060405180910390a1336007600083815260200190815260200160002060006101000a81548173ffffffffffffffffffffffffffffffffffffffff021916908373ffffffffffffffffffffffffffffffffffffffff16021790555050505050505050565b600073ffffffffffffffffffffffffffffffffffffffff168273ffffffffffffffffffffffffffffffffffffffff1614151515620006e357600080fd5b620007038282620007576401000000000262001ebc176401000000009004565b8173ffffffffffffffffffffffffffffffffffffffff1660007fddf252ad1be2c89b69c2b068fc378daa952ba7f163c4a11628f55a4df523b3ef836040518082815260200191505060405180910390a35050565b60008073ffffffffffffffffffffffffffffffffffffffff166001600084815260200190815260200160002060009054906101000a900473ffffffffffffffffffffffffffffffffffffffff1673ffffffffffffffffffffffffffffffffffffffff16141515620007c757600080fd5b826001600084815260200190815260200160002060006101000a81548173ffffffffffffffffffffffffffffffffffffffff021916908373ffffffffffffffffffffffffffffffffffffffff1602179055506200083883620008eb6401000000000262001a0b176401000000009004565b9050600360008473ffffffffffffffffffffffffffffffffffffffff1673ffffffffffffffffffffffffffffffffffffffff16815260200190815260200160002080548060010182816200088d919062000a99565b916000526020600020900160008490919091505550806004600084815260200190815260200160002081905550620008e06001600054620009376401000000000262002398179091906401000000009004565b600081905550505050565b6000600360008373ffffffffffffffffffffffffffffffffffffffff1673ffffffffffffffffffffffffffffffffffffffff168152602001908152602001600020805490509050919050565b60008082840190508381101515156200094c57fe5b8091505092915050565b828054600181600116156101000203166002900490600052602060002090601f016020900481019282601f106200099957805160ff1916838001178555620009ca565b82800160010185558215620009ca579182015b82811115620009c9578251825591602001919060010190620009ac565b5b509050620009d9919062000ac8565b5090565b81548183558181151162000a0d5760060281600602836000526020600020918201910162000a0c919062000af0565b5b505050565b828054600181600116156101000203166002900490600052602060002090601f016020900481019282601f1062000a5557805160ff191683800117855562000a86565b8280016001018555821562000a86579182015b8281111562000a8557825182559160200191906001019062000a68565b5b50905062000a95919062000ac8565b5090565b81548183558181151162000ac35781836000526020600020918201910162000ac2919062000ac8565b5b505050565b62000aed91905b8082111562000ae957600081600090555060010162000acf565b5090565b90565b62000b7b91905b8082111562000b77576000808201600062000b13919062000b7e565b60018201600062000b25919062000b7e565b60028201600062000b37919062000b7e565b60038201600062000b49919062000b7e565b60048201600062000b5b919062000b7e565b60058201600062000b6d919062000b7e565b5060060162000af7565b5090565b90565b50805460018160011615610100020316600290046000825580601f1062000ba6575062000bc7565b601f01602090049060005260206000209081019062000bc6919062000ac8565b5b50565b6126888062000bda6000396000f3006060604052600436106100e6576000357c0100000000000000000000000000000000000000000000000000000000900463ffffffff16806306fdde03146100eb578063095ea7b31461017957806314137fe7146101bb57806318160ddd1461035c57806324418a76146103855780632a6dd48f146103e85780633ccfd60b1461044b578063539ead66146104605780635a3f2672146107185780636352211e146107a657806370a08231146108095780638da5cb5b14610856578063a9059cbb146108ab578063b2e6ceeb146108ed578063f2fde38b14610910578063fb69fbbb14610949575b600080fd5b34156100f657600080fd5b6100fe610caf565b6040518080602001828103825283818151815260200191508051906020019080838360005b8381101561013e578082015181840152602081019050610123565b50505050905090810190601f16801561016b5780820380516001836020036101000a031916815260200191505b509250505060405180910390f35b341561018457600080fd5b6101b9600480803573ffffffffffffffffffffffffffffffffffffffff16906020019091908035906020019091905050610d4d565b005b61035a600480803590602001908201803590602001908080601f0160208091040260200160405190810160405280939291908181526020018383808284378201915050505050509190803590602001908201803590602001908080601f0160208091040260200160405190810160405280939291908181526020018383808284378201915050505050509190803590602001908201803590602001908080601f0160208091040260200160405190810160405280939291908181526020018383808284378201915050505050509190803590602001908201803590602001908080601f0160208091040260200160405190810160405280939291908181526020018383808284378201915050505050509190803590602001908201803590602001908080601f0160208091040260200160405190810160405280939291908181526020018383808284378201915050505050509190803590602001908201803590602001908080601f01602080910402602001604051908101604052809392919081815260200183838082843782019150505050505091905050610ee0565b005b341561036757600080fd5b61036f611321565b6040518082815260200191505060405180910390f35b341561039057600080fd5b6103a6600480803590602001909190505061132a565b604051808273ffffffffffffffffffffffffffffffffffffffff1673ffffffffffffffffffffffffffffffffffffffff16815260200191505060405180910390f35b34156103f357600080fd5b6104096004808035906020019091905050611367565b604051808273ffffffffffffffffffffffffffffffffffffffff1673ffffffffffffffffffffffffffffffffffffffff16815260200191505060405180910390f35b341561045657600080fd5b61045e6113a4565b005b341561046b57600080fd5b610481600480803590602001909190505061147b565b6040518080602001806020018060200180602001806020018060200187810387528d818151815260200191508051906020019080838360005b838110156104d55780820151818401526020810190506104ba565b50505050905090810190601f1680156105025780820380516001836020036101000a031916815260200191505b5087810386528c818151815260200191508051906020019080838360005b8381101561053b578082015181840152602081019050610520565b50505050905090810190601f1680156105685780820380516001836020036101000a031916815260200191505b5087810385528b818151815260200191508051906020019080838360005b838110156105a1578082015181840152602081019050610586565b50505050905090810190601f1680156105ce5780820380516001836020036101000a031916815260200191505b5087810384528a818151815260200191508051906020019080838360005b838110156106075780820151818401526020810190506105ec565b50505050905090810190601f1680156106345780820380516001836020036101000a031916815260200191505b50878103835289818151815260200191508051906020019080838360005b8381101561066d578082015181840152602081019050610652565b50505050905090810190601f16801561069a5780820380516001836020036101000a031916815260200191505b50878103825288818151815260200191508051906020019080838360005b838110156106d35780820151818401526020810190506106b8565b50505050905090810190601f1680156107005780820380516001836020036101000a031916815260200191505b509c5050505050505050505050505060405180910390f35b341561072357600080fd5b61074f600480803573ffffffffffffffffffffffffffffffffffffffff169060200190919050506118f0565b6040518080602001828103825283818151815260200191508051906020019060200280838360005b83811015610792578082015181840152602081019050610777565b505050509050019250505060405180910390f35b34156107b157600080fd5b6107c7600480803590602001909190505061198d565b604051808273ffffffffffffffffffffffffffffffffffffffff1673ffffffffffffffffffffffffffffffffffffffff16815260200191505060405180910390f35b341561081457600080fd5b610840600480803573ffffffffffffffffffffffffffffffffffffffff16906020019091905050611a0b565b6040518082815260200191505060405180910390f35b341561086157600080fd5b610869611a57565b604051808273ffffffffffffffffffffffffffffffffffffffff1673ffffffffffffffffffffffffffffffffffffffff16815260200191505060405180910390f35b34156108b657600080fd5b6108eb600480803573ffffffffffffffffffffffffffffffffffffffff16906020019091908035906020019091905050611a7d565b005b34156108f857600080fd5b61090e6004808035906020019091905050611ad0565b005b341561091b57600080fd5b610947600480803573ffffffffffffffffffffffffffffffffffffffff16906020019091905050611afb565b005b341561095457600080fd5b61096a6004808035906020019091905050611c53565b6040518080602001806020018060200180602001806020018060200187810387528d818154600181600116156101000203166002900481526020019150805460018160011615610100020316600290048015610a075780601f106109dc57610100808354040283529160200191610a07565b820191906000526020600020905b8154815290600101906020018083116109ea57829003601f168201915b505087810386528c818154600181600116156101000203166002900481526020019150805460018160011615610100020316600290048015610a8a5780601f10610a5f57610100808354040283529160200191610a8a565b820191906000526020600020905b815481529060010190602001808311610a6d57829003601f168201915b505087810385528b818154600181600116156101000203166002900481526020019150805460018160011615610100020316600290048015610b0d5780601f10610ae257610100808354040283529160200191610b0d565b820191906000526020600020905b815481529060010190602001808311610af057829003601f168201915b505087810384528a818154600181600116156101000203166002900481526020019150805460018160011615610100020316600290048015610b905780601f10610b6557610100808354040283529160200191610b90565b820191906000526020600020905b815481529060010190602001808311610b7357829003601f168201915b5050878103835289818154600181600116156101000203166002900481526020019150805460018160011615610100020316600290048015610c135780601f10610be857610100808354040283529160200191610c13565b820191906000526020600020905b815481529060010190602001808311610bf657829003601f168201915b5050878103825288818154600181600116156101000203166002900481526020019150805460018160011615610100020316600290048015610c965780601f10610c6b57610100808354040283529160200191610c96565b820191906000526020600020905b815481529060010190602001808311610c7957829003601f168201915b50509c5050505050505050505050505060405180910390f35b60068054600181600116156101000203166002900480601f016020809104026020016040519081016040528092919081815260200182805460018160011615610100020316600290048015610d455780601f10610d1a57610100808354040283529160200191610d45565b820191906000526020600020905b815481529060010190602001808311610d2857829003601f168201915b505050505081565b6000813373ffffffffffffffffffffffffffffffffffffffff16610d708261198d565b73ffffffffffffffffffffffffffffffffffffffff16141515610d9257600080fd5b610d9b8361198d565b91508173ffffffffffffffffffffffffffffffffffffffff168473ffffffffffffffffffffffffffffffffffffffff1614151515610dd857600080fd5b6000610de384611367565b73ffffffffffffffffffffffffffffffffffffffff16141580610e1d575060008473ffffffffffffffffffffffffffffffffffffffff1614155b15610eda57836002600085815260200190815260200160002060006101000a81548173ffffffffffffffffffffffffffffffffffffffff021916908373ffffffffffffffffffffffffffffffffffffffff1602179055508373ffffffffffffffffffffffffffffffffffffffff168273ffffffffffffffffffffffffffffffffffffffff167f8c5be1e5ebec7d5bd14f71427d1e84f3dd0314c0f7b2291e5b200ac8c7c3b925856040518082815260200191505060405180910390a35b50505050565b6000655af3107a400034111515610ef657600080fd5b60088054806001018281610f0a91906123cf565b9160005260206000209060060201600060c0604051908101604052808b81526020018a81526020018981526020018881526020018781526020018681525090919091506000820151816000019080519060200190610f69929190612401565b506020820151816001019080519060200190610f86929190612401565b506040820151816002019080519060200190610fa3929190612401565b506060820151816003019080519060200190610fc0929190612401565b506080820151816004019080519060200190610fdd929190612401565b5060a0820151816005019080519060200190610ffa929190612401565b50505090506110093382611c98565b7f38d2adca4c1e4638140eeae7dbe07deb7f01c4326a5d96b5cb67b725d3192ffa8787878787876040518080602001806020018060200180602001806020018060200187810387528d818151815260200191508051906020019080838360005b83811015611084578082015181840152602081019050611069565b50505050905090810190601f1680156110b15780820380516001836020036101000a031916815260200191505b5087810386528c818151815260200191508051906020019080838360005b838110156110ea5780820151818401526020810190506110cf565b50505050905090810190601f1680156111175780820380516001836020036101000a031916815260200191505b5087810385528b818151815260200191508051906020019080838360005b83811015611150578082015181840152602081019050611135565b50505050905090810190601f16801561117d5780820380516001836020036101000a031916815260200191505b5087810384528a818151815260200191508051906020019080838360005b838110156111b657808201518184015260208101905061119b565b50505050905090810190601f1680156111e35780820380516001836020036101000a031916815260200191505b50878103835289818151815260200191508051906020019080838360005b8381101561121c578082015181840152602081019050611201565b50505050905090810190601f1680156112495780820380516001836020036101000a031916815260200191505b50878103825288818151815260200191508051906020019080838360005b83811015611282578082015181840152602081019050611267565b50505050905090810190601f1680156112af5780820380516001836020036101000a031916815260200191505b509c5050505050505050505050505060405180910390a1336007600083815260200190815260200160002060006101000a81548173ffffffffffffffffffffffffffffffffffffffff021916908373ffffffffffffffffffffffffffffffffffffffff16021790555050505050505050565b60008054905090565b60006007600083815260200190815260200160002060009054906101000a900473ffffffffffffffffffffffffffffffffffffffff169050919050565b60006002600083815260200190815260200160002060009054906101000a900473ffffffffffffffffffffffffffffffffffffffff169050919050565b600560009054906101000a900473ffffffffffffffffffffffffffffffffffffffff1673ffffffffffffffffffffffffffffffffffffffff163373ffffffffffffffffffffffffffffffffffffffff1614151561140057600080fd5b600560009054906101000a900473ffffffffffffffffffffffffffffffffffffffff1673ffffffffffffffffffffffffffffffffffffffff166108fc3073ffffffffffffffffffffffffffffffffffffffff16319081150290604051600060405180830381858888f19350505050151561147957600080fd5b565b611483612481565b61148b612481565b611493612481565b61149b612481565b6114a3612481565b6114ab612481565b6114b3612495565b6008888154811015156114c257fe5b906000526020600020906006020160c06040519081016040529081600082018054600181600116156101000203166002900480601f0160208091040260200160405190810160405280929190818152602001828054600181600116156101000203166002900480156115755780601f1061154a57610100808354040283529160200191611575565b820191906000526020600020905b81548152906001019060200180831161155857829003601f168201915b50505050508152602001600182018054600181600116156101000203166002900480601f0160208091040260200160405190810160405280929190818152602001828054600181600116156101000203166002900480156116175780601f106115ec57610100808354040283529160200191611617565b820191906000526020600020905b8154815290600101906020018083116115fa57829003601f168201915b50505050508152602001600282018054600181600116156101000203166002900480601f0160208091040260200160405190810160405280929190818152602001828054600181600116156101000203166002900480156116b95780601f1061168e576101008083540402835291602001916116b9565b820191906000526020600020905b81548152906001019060200180831161169c57829003601f168201915b50505050508152602001600382018054600181600116156101000203166002900480601f01602080910402602001604051908101604052809291908181526020018280546001816001161561010002031660029004801561175b5780601f106117305761010080835404028352916020019161175b565b820191906000526020600020905b81548152906001019060200180831161173e57829003601f168201915b50505050508152602001600482018054600181600116156101000203166002900480601f0160208091040260200160405190810160405280929190818152602001828054600181600116156101000203166002900480156117fd5780601f106117d2576101008083540402835291602001916117fd565b820191906000526020600020905b8154815290600101906020018083116117e057829003601f168201915b50505050508152602001600582018054600181600116156101000203166002900480601f01602080910402602001604051908101604052809291908181526020018280546001816001161561010002031660029004801561189f5780601f106118745761010080835404028352916020019161189f565b820191906000526020600020905b81548152906001019060200180831161188257829003601f168201915b5050505050815250509050806000015181602001518260400151836060015184608001518560a001518595508494508393508292508191508090509650965096509650965096505091939550919395565b6118f86124f0565b600360008373ffffffffffffffffffffffffffffffffffffffff1673ffffffffffffffffffffffffffffffffffffffff16815260200190815260200160002080548060200260200160405190810160405280929190818152602001828054801561198157602002820191906000526020600020905b81548152602001906001019080831161196d575b50505050509050919050565b6000806001600084815260200190815260200160002060009054906101000a900473ffffffffffffffffffffffffffffffffffffffff169050600073ffffffffffffffffffffffffffffffffffffffff168173ffffffffffffffffffffffffffffffffffffffff1614151515611a0257600080fd5b80915050919050565b6000600360008373ffffffffffffffffffffffffffffffffffffffff1673ffffffffffffffffffffffffffffffffffffffff168152602001908152602001600020805490509050919050565b600560009054906101000a900473ffffffffffffffffffffffffffffffffffffffff1681565b803373ffffffffffffffffffffffffffffffffffffffff16611a9e8261198d565b73ffffffffffffffffffffffffffffffffffffffff16141515611ac057600080fd5b611acb338484611d32565b505050565b611ada3382611e7b565b1515611ae557600080fd5b611af8611af18261198d565b3383611d32565b50565b600560009054906101000a900473ffffffffffffffffffffffffffffffffffffffff1673ffffffffffffffffffffffffffffffffffffffff163373ffffffffffffffffffffffffffffffffffffffff16141515611b5757600080fd5b600073ffffffffffffffffffffffffffffffffffffffff168173ffffffffffffffffffffffffffffffffffffffff1614151515611b9357600080fd5b8073ffffffffffffffffffffffffffffffffffffffff16600560009054906101000a900473ffffffffffffffffffffffffffffffffffffffff1673ffffffffffffffffffffffffffffffffffffffff167f8be0079c531659141344cd1fd0a4f28419497f9722a3daafe3b4186f6b6457e060405160405180910390a380600560006101000a81548173ffffffffffffffffffffffffffffffffffffffff021916908373ffffffffffffffffffffffffffffffffffffffff16021790555050565b600881815481101515611c6257fe5b90600052602060002090600602016000915090508060000190806001019080600201908060030190806004019080600501905086565b600073ffffffffffffffffffffffffffffffffffffffff168273ffffffffffffffffffffffffffffffffffffffff1614151515611cd457600080fd5b611cde8282611ebc565b8173ffffffffffffffffffffffffffffffffffffffff1660007fddf252ad1be2c89b69c2b068fc378daa952ba7f163c4a11628f55a4df523b3ef836040518082815260200191505060405180910390a35050565b600073ffffffffffffffffffffffffffffffffffffffff168273ffffffffffffffffffffffffffffffffffffffff1614151515611d6e57600080fd5b611d778161198d565b73ffffffffffffffffffffffffffffffffffffffff168273ffffffffffffffffffffffffffffffffffffffff1614151515611db157600080fd5b8273ffffffffffffffffffffffffffffffffffffffff16611dd18261198d565b73ffffffffffffffffffffffffffffffffffffffff16141515611df357600080fd5b611dfd8382612027565b611e078382612110565b611e118282611ebc565b8173ffffffffffffffffffffffffffffffffffffffff168373ffffffffffffffffffffffffffffffffffffffff167fddf252ad1be2c89b69c2b068fc378daa952ba7f163c4a11628f55a4df523b3ef836040518082815260200191505060405180910390a3505050565b60008273ffffffffffffffffffffffffffffffffffffffff16611e9d83611367565b73ffffffffffffffffffffffffffffffffffffffff1614905092915050565b60008073ffffffffffffffffffffffffffffffffffffffff166001600084815260200190815260200160002060009054906101000a900473ffffffffffffffffffffffffffffffffffffffff1673ffffffffffffffffffffffffffffffffffffffff16141515611f2b57600080fd5b826001600084815260200190815260200160002060006101000a81548173ffffffffffffffffffffffffffffffffffffffff021916908373ffffffffffffffffffffffffffffffffffffffff160217905550611f8683611a0b565b9050600360008473ffffffffffffffffffffffffffffffffffffffff1673ffffffffffffffffffffffffffffffffffffffff1681526020019081526020016000208054806001018281611fd99190612504565b91600052602060002090016000849091909150555080600460008481526020019081526020016000208190555061201c600160005461239890919063ffffffff16565b600081905550505050565b8173ffffffffffffffffffffffffffffffffffffffff166120478261198d565b73ffffffffffffffffffffffffffffffffffffffff1614151561206957600080fd5b60006002600083815260200190815260200160002060006101000a81548173ffffffffffffffffffffffffffffffffffffffff021916908373ffffffffffffffffffffffffffffffffffffffff16021790555060008273ffffffffffffffffffffffffffffffffffffffff167f8c5be1e5ebec7d5bd14f71427d1e84f3dd0314c0f7b2291e5b200ac8c7c3b925836040518082815260200191505060405180910390a35050565b60008060008473ffffffffffffffffffffffffffffffffffffffff166121358561198d565b73ffffffffffffffffffffffffffffffffffffffff1614151561215757600080fd5b60046000858152602001908152602001600020549250612189600161217b87611a0b565b6123b690919063ffffffff16565b9150600360008673ffffffffffffffffffffffffffffffffffffffff1673ffffffffffffffffffffffffffffffffffffffff168152602001908152602001600020828154811015156121d757fe5b906000526020600020900154905060006001600086815260200190815260200160002060006101000a81548173ffffffffffffffffffffffffffffffffffffffff021916908373ffffffffffffffffffffffffffffffffffffffff16021790555080600360008773ffffffffffffffffffffffffffffffffffffffff1673ffffffffffffffffffffffffffffffffffffffff1681526020019081526020016000208481548110151561228557fe5b9060005260206000209001819055506000600360008773ffffffffffffffffffffffffffffffffffffffff1673ffffffffffffffffffffffffffffffffffffffff168152602001908152602001600020838154811015156122e257fe5b906000526020600020900181905550600360008673ffffffffffffffffffffffffffffffffffffffff1673ffffffffffffffffffffffffffffffffffffffff1681526020019081526020016000208054809190600190036123439190612530565b506000600460008681526020019081526020016000208190555082600460008381526020019081526020016000208190555061238b60016000546123b690919063ffffffff16565b6000819055505050505050565b60008082840190508381101515156123ac57fe5b8091505092915050565b60008282111515156123c457fe5b818303905092915050565b8154818355818115116123fc576006028160060283600052602060002091820191016123fb919061255c565b5b505050565b828054600181600116156101000203166002900490600052602060002090601f016020900481019282601f1061244257805160ff1916838001178555612470565b82800160010185558215612470579182015b8281111561246f578251825591602001919060010190612454565b5b50905061247d91906125db565b5090565b602060405190810160405280600081525090565b60c0604051908101604052806124a9612600565b81526020016124b6612600565b81526020016124c3612600565b81526020016124d0612600565b81526020016124dd612600565b81526020016124ea612600565b81525090565b602060405190810160405280600081525090565b81548183558181151161252b5781836000526020600020918201910161252a91906125db565b5b505050565b8154818355818115116125575781836000526020600020918201910161255691906125db565b5b505050565b6125d891905b808211156125d4576000808201600061257b9190612614565b60018201600061258b9190612614565b60028201600061259b9190612614565b6003820160006125ab9190612614565b6004820160006125bb9190612614565b6005820160006125cb9190612614565b50600601612562565b5090565b90565b6125fd91905b808211156125f95760008160009055506001016125e1565b5090565b90565b602060405190810160405280600081525090565b50805460018160011615610100020316600290046000825580601f1061263a5750612659565b601f01602090049060005260206000209081019061265891906125db565b5b505600a165627a7a723058206cf6621fa1d4581974440d13c167abca9342211e71b6c951de6025f7851c7c500029",
  "source": "pragma solidity ^0.4.18;\n\nimport 'zeppelin-solidity/contracts/token/ERC721/ERC721Token.sol';\nimport 'zeppelin-solidity/contracts/ownership/Ownable.sol';\n\ncontract KoolKidz is ERC721Token, Ownable {\n    event newKoolKidz(\n      string name,\n      string hometown,\n      string hairColor,\n      string eyeColor,\n      string catchPhrase,\n      string sport\n    );\n\n    string public name;\n    uint constant PRICE = 0.00010 ether;\n\n    function KoolKidz() {\n      name = \"KoolKidz\";\n      createSuperKoolKid('Jules Avignon', 'Paris', 'Maron', 'Vert', 'Voulez vous couchez avec moi ce soir?', 'Foot');\n    }\n\n    /*\n    modifier ownerOf(uint _koolKidzId) {\n      require(msg.sender == koolKidzToOwner[_koolKidzId]);\n      _;\n    } */\n\n    mapping(uint => address) koolKidzToOwner;\n\n\n    struct KoolKid {\n      string name;\n      string hometown;\n      string hairColor;\n      string eyeColor;\n      string catchPhrase;\n      string sport;\n    }\n\n    KoolKid[] public schoolYard;\n\n    function withdraw() external onlyOwner {\n      owner.transfer(this.balance);\n    }\n\n    function createSuperKoolKid(\n                      string _name,\n                      string _hometown,\n                      string _hairColor,\n                      string _eyeColor,\n                      string _catchPhrase,\n                      string _sport) public payable {\n        require(msg.value > PRICE);\n        uint id = schoolYard.push(KoolKid(_name, _hometown, _hairColor, _eyeColor, _catchPhrase, _sport));\n        _mint(msg.sender, id);\n        newKoolKidz(_name, _hometown, _hairColor, _eyeColor, _catchPhrase, _sport);\n        koolKidzToOwner[id] = msg.sender;\n    }\n\n    function whoIsThisKid(uint _id) public view returns (string, string, string, string, string, string){\n      KoolKid memory kid = schoolYard[_id];\n      return (kid.name, kid.hometown, kid.hairColor, kid.eyeColor, kid.catchPhrase, kid.sport);\n    }\n\n    function whoLostTheirKid(uint _id) public view returns (address){\n      return koolKidzToOwner[_id];\n    }\n}\n",
  "sourcePath": "/Users/russell.nibbelink/Documents/Ethereum/colors/contracts/KoolKidz.sol",
  "compiler": {
    "name": "solc",
    "version": "0.4.19+commit.c4cbbb05.Emscripten.clang"
  },
  "schemaVersion": "1.0.1",
  "updatedAt": "2018-02-18T08:00:06.947Z"
}